{
  "contractName": "Garantia",
  "abi": [
    {
      "inputs": [],
      "stateMutability": "nonpayable",
      "type": "constructor"
    },
    {
      "anonymous": false,
      "inputs": [
        {
          "indexed": true,
          "internalType": "address",
          "name": "previousOwner",
          "type": "address"
        },
        {
          "indexed": true,
          "internalType": "address",
          "name": "newOwner",
          "type": "address"
        }
      ],
      "name": "OwnershipTransferred",
      "type": "event"
    },
    {
      "anonymous": false,
      "inputs": [
        {
          "indexed": false,
          "internalType": "address",
          "name": "account",
          "type": "address"
        }
      ],
      "name": "Paused",
      "type": "event"
    },
    {
      "anonymous": false,
      "inputs": [
        {
          "indexed": false,
          "internalType": "address",
          "name": "account",
          "type": "address"
        }
      ],
      "name": "Unpaused",
      "type": "event"
    },
    {
      "stateMutability": "payable",
      "type": "fallback"
    },
    {
      "inputs": [],
      "name": "owner",
      "outputs": [
        {
          "internalType": "address",
          "name": "",
          "type": "address"
        }
      ],
      "stateMutability": "view",
      "type": "function"
    },
    {
      "inputs": [],
      "name": "paused",
      "outputs": [
        {
          "internalType": "bool",
          "name": "",
          "type": "bool"
        }
      ],
      "stateMutability": "view",
      "type": "function"
    },
    {
      "inputs": [
        {
          "internalType": "uint256",
          "name": "",
          "type": "uint256"
        }
      ],
      "name": "productos",
      "outputs": [
        {
          "internalType": "uint256",
          "name": "id",
          "type": "uint256"
        },
        {
          "internalType": "address",
          "name": "comprador",
          "type": "address"
        },
        {
          "internalType": "string",
          "name": "nombreProducto",
          "type": "string"
        },
        {
          "internalType": "string",
          "name": "numSerie",
          "type": "string"
        },
        {
          "internalType": "uint256",
          "name": "yearInicio",
          "type": "uint256"
        },
        {
          "internalType": "uint256",
          "name": "mesInicio",
          "type": "uint256"
        },
        {
          "internalType": "uint256",
          "name": "diaInicio",
          "type": "uint256"
        },
        {
          "internalType": "uint256",
          "name": "fechaFin",
          "type": "uint256"
        },
        {
          "internalType": "uint256",
          "name": "fecha",
          "type": "uint256"
        }
      ],
      "stateMutability": "view",
      "type": "function"
    },
    {
      "inputs": [],
      "name": "productosCount",
      "outputs": [
        {
          "internalType": "uint256",
          "name": "",
          "type": "uint256"
        }
      ],
      "stateMutability": "view",
      "type": "function"
    },
    {
      "inputs": [],
      "name": "renounceOwnership",
      "outputs": [],
      "stateMutability": "nonpayable",
      "type": "function"
    },
    {
      "inputs": [
        {
          "internalType": "address",
          "name": "newOwner",
          "type": "address"
        }
      ],
      "name": "transferOwnership",
      "outputs": [],
      "stateMutability": "nonpayable",
      "type": "function"
    },
    {
      "stateMutability": "payable",
      "type": "receive"
    },
    {
      "inputs": [
        {
          "internalType": "string",
          "name": "_nombre",
          "type": "string"
        },
        {
          "internalType": "string",
          "name": "_numSerie",
          "type": "string"
        }
      ],
      "name": "addProducto",
      "outputs": [],
      "stateMutability": "nonpayable",
      "type": "function"
    },
    {
      "inputs": [
        {
          "internalType": "string",
          "name": "_numSerie",
          "type": "string"
        }
      ],
      "name": "checkGarantia",
      "outputs": [
        {
          "internalType": "string",
          "name": "",
          "type": "string"
        }
      ],
      "stateMutability": "view",
      "type": "function"
    },
    {
      "inputs": [
        {
          "internalType": "string",
          "name": "_numSerie",
          "type": "string"
        }
      ],
      "name": "getNombre",
      "outputs": [
        {
          "internalType": "string",
          "name": "",
          "type": "string"
        }
      ],
      "stateMutability": "view",
      "type": "function"
    },
    {
      "inputs": [
        {
          "internalType": "string",
          "name": "_numSerie",
          "type": "string"
        }
      ],
      "name": "getYearInicio",
      "outputs": [
        {
          "internalType": "uint256",
          "name": "",
          "type": "uint256"
        }
      ],
      "stateMutability": "view",
      "type": "function"
    },
    {
      "inputs": [
        {
          "internalType": "string",
          "name": "_numSerie",
          "type": "string"
        }
      ],
      "name": "getMesInicio",
      "outputs": [
        {
          "internalType": "uint256",
          "name": "",
          "type": "uint256"
        }
      ],
      "stateMutability": "view",
      "type": "function"
    },
    {
      "inputs": [
        {
          "internalType": "string",
          "name": "_numSerie",
          "type": "string"
        }
      ],
      "name": "getDiaInicio",
      "outputs": [
        {
          "internalType": "uint256",
          "name": "",
          "type": "uint256"
        }
      ],
      "stateMutability": "view",
      "type": "function"
    },
    {
      "inputs": [
        {
          "internalType": "string",
          "name": "_numSerie",
          "type": "string"
        }
      ],
      "name": "getFechaFin",
      "outputs": [
        {
          "internalType": "uint256",
          "name": "",
          "type": "uint256"
        }
      ],
      "stateMutability": "view",
      "type": "function"
    }
  ],
  "bytecode": "0x60806040523480156200001157600080fd5b5062000032620000266200014a60201b60201c565b6200015260201b60201c565b60008060146101000a81548160ff021916908315150217905550620000c86040518060400160405280600d81526020017f44656c6c20436f6d7075746572000000000000000000000000000000000000008152506040518060400160405280600b81526020017f45533131303030343533330000000000000000000000000000000000000000008152506200021660201b60201c565b620001446040518060400160405280600e81526020017f506c61792053746174696f6e20340000000000000000000000000000000000008152506040518060400160405280600c81526020017f46523433333232323030343400000000000000000000000000000000000000008152506200021660201b60201c565b62000c75565b600033905090565b60008060009054906101000a900473ffffffffffffffffffffffffffffffffffffffff169050816000806101000a81548173ffffffffffffffffffffffffffffffffffffffff021916908373ffffffffffffffffffffffffffffffffffffffff1602179055508173ffffffffffffffffffffffffffffffffffffffff168173ffffffffffffffffffffffffffffffffffffffff167f8be0079c531659141344cd1fd0a4f28419497f9722a3daafe3b4186f6b6457e060405160405180910390a35050565b62000226620006c860201b60201c565b1562000269576040517f08c379a00000000000000000000000000000000000000000000000000000000081526004016200026090620007ef565b60405180910390fd5b600082511180156200027c575060008151115b620002be576040517f08c379a0000000000000000000000000000000000000000000000000000000008152600401620002b59062000887565b60405180910390fd5b600381604051620002d091906200092c565b908152602001604051809103902060009054906101000a900460ff16156200032f576040517f08c379a00000000000000000000000000000000000000000000000000000000081526004016200032690620009bb565b60405180910390fd5b60016003826040516200034391906200092c565b908152602001604051809103902060006101000a81548160ff0219169083151502179055506000600154905060016000815480929190620003849062000a16565b919050555060003390506000808314806200039f5750600183145b15620003bf576303c8fe8042620003b7919062000a64565b9050620003c3565b4290505b60006303bfc40082620003d7919062000a9f565b9050600073__Utils_________________________________6392d66313846040518263ffffffff1660e01b815260040162000414919062000b0d565b602060405180830381865af415801562000432573d6000803e3d6000fd5b505050506040513d601f19601f8201168201806040525081019062000458919062000b6e565b61ffff169050600073__Utils_________________________________63a324ad24856040518263ffffffff1660e01b815260040162000499919062000b0d565b602060405180830381865af4158015620004b7573d6000803e3d6000fd5b505050506040513d601f19601f82011682018060405250810190620004dd919062000bde565b60ff169050600073__Utils_________________________________6365c72840866040518263ffffffff1660e01b81526004016200051d919062000b0d565b602060405180830381865af41580156200053b573d6000803e3d6000fd5b505050506040513d601f19601f8201168201806040525081019062000561919062000bde565b60ff1690506040518061012001604052808881526020018773ffffffffffffffffffffffffffffffffffffffff1681526020018a8152602001898152602001848152602001838152602001828152602001858152602001868152506002600060015481526020019081526020016000206000820151816000015560208201518160010160006101000a81548173ffffffffffffffffffffffffffffffffffffffff021916908373ffffffffffffffffffffffffffffffffffffffff160217905550604082015181600201908051906020019062000640929190620006de565b5060608201518160030190805190602001906200065f929190620006de565b506080820151816004015560a0820151816005015560c0820151816006015560e082015181600701556101008201518160080155905050600154600489604051620006ab91906200092c565b908152602001604051809103902081905550505050505050505050565b60008060149054906101000a900460ff16905090565b828054620006ec9062000c3f565b90600052602060002090601f0160209004810192826200071057600085556200075c565b82601f106200072b57805160ff19168380011785556200075c565b828001600101855582156200075c579182015b828111156200075b5782518255916020019190600101906200073e565b5b5090506200076b91906200076f565b5090565b5b808211156200078a57600081600090555060010162000770565b5090565b600082825260208201905092915050565b7f5061757361626c653a2070617573656400000000000000000000000000000000600082015250565b6000620007d76010836200078e565b9150620007e4826200079f565b602082019050919050565b600060208201905081810360008301526200080a81620007c8565b9050919050565b7f6f75206d75737420696e74726f647563652061204e616d6520616e642061205360008201527f657269616c204e756d6265720000000000000000000000000000000000000000602082015250565b60006200086f602c836200078e565b91506200087c8262000811565b604082019050919050565b60006020820190508181036000830152620008a28162000860565b9050919050565b600081519050919050565b600081905092915050565b60005b83811015620008df578082015181840152602081019050620008c2565b83811115620008ef576000848401525b50505050565b60006200090282620008a9565b6200090e8185620008b4565b935062000920818560208601620008bf565b80840191505092915050565b60006200093a8284620008f5565b915081905092915050565b7f53657269616c206e756d62657220616c7265616479206163746976617465642160008201527f2100000000000000000000000000000000000000000000000000000000000000602082015250565b6000620009a36021836200078e565b9150620009b08262000945565b604082019050919050565b60006020820190508181036000830152620009d68162000994565b9050919050565b7f4e487b7100000000000000000000000000000000000000000000000000000000600052601160045260246000fd5b6000819050919050565b600062000a238262000a0c565b91507fffffffffffffffffffffffffffffffffffffffffffffffffffffffffffffffff82141562000a595762000a58620009dd565b5b600182019050919050565b600062000a718262000a0c565b915062000a7e8362000a0c565b92508282101562000a945762000a93620009dd565b5b828203905092915050565b600062000aac8262000a0c565b915062000ab98362000a0c565b9250827fffffffffffffffffffffffffffffffffffffffffffffffffffffffffffffffff0382111562000af15762000af0620009dd565b5b828201905092915050565b62000b078162000a0c565b82525050565b600060208201905062000b24600083018462000afc565b92915050565b600080fd5b600061ffff82169050919050565b62000b488162000b2f565b811462000b5457600080fd5b50565b60008151905062000b688162000b3d565b92915050565b60006020828403121562000b875762000b8662000b2a565b5b600062000b978482850162000b57565b91505092915050565b600060ff82169050919050565b62000bb88162000ba0565b811462000bc457600080fd5b50565b60008151905062000bd88162000bad565b92915050565b60006020828403121562000bf75762000bf662000b2a565b5b600062000c078482850162000bc7565b91505092915050565b7f4e487b7100000000000000000000000000000000000000000000000000000000600052602260045260246000fd5b6000600282049050600182168062000c5857607f821691505b6020821081141562000c6f5762000c6e62000c10565b5b50919050565b611d3b8062000c856000396000f3fe6080604052600436106100c65760003560e01c806388e93cc81161007f578063bac7e0f111610059578063bac7e0f1146102c5578063bc62a0a114610302578063f2fde38b1461033f578063fc3c41b914610368576100cd565b806388e93cc81461022c5780638da5cb5b146102555780639955363614610280576100cd565b8063229d5141146101085780634930a74b146101455780635c975abb14610182578063715018a6146101ad57806381b881de146101c4578063878e181d14610201576100cd565b366100cd57005b6040517f08c379a00000000000000000000000000000000000000000000000000000000081526004016100ff90611251565b60405180910390fd5b34801561011457600080fd5b5061012f600480360381019061012a91906113cb565b6103a5565b60405161013c919061148b565b60405180910390f35b34801561015157600080fd5b5061016c600480360381019061016791906113cb565b6104c9565b60405161017991906114c6565b60405180910390f35b34801561018e57600080fd5b50610197610572565b6040516101a491906114fc565b60405180910390f35b3480156101b957600080fd5b506101c2610588565b005b3480156101d057600080fd5b506101eb60048036038101906101e691906113cb565b610610565b6040516101f8919061148b565b60405180910390f35b34801561020d57600080fd5b50610216610741565b60405161022391906114c6565b60405180910390f35b34801561023857600080fd5b50610253600480360381019061024e9190611517565b610747565b005b34801561026157600080fd5b5061026a610bc5565b60405161027791906115d0565b60405180910390f35b34801561028c57600080fd5b506102a760048036038101906102a29190611617565b610bee565b6040516102bc99989796959493929190611644565b60405180910390f35b3480156102d157600080fd5b506102ec60048036038101906102e791906113cb565b610d6c565b6040516102f991906114c6565b60405180910390f35b34801561030e57600080fd5b50610329600480360381019061032491906113cb565b610e15565b60405161033691906114c6565b60405180910390f35b34801561034b57600080fd5b506103666004803603810190610361919061170b565b610ebe565b005b34801561037457600080fd5b5061038f600480360381019061038a91906113cb565b610fb6565b60405161039c91906114c6565b60405180910390f35b60606003826040516103b79190611774565b908152602001604051809103902060009054906101000a900460ff16610412576040517f08c379a0000000000000000000000000000000000000000000000000000000008152600401610409906117fd565b60405180910390fd5b42600260006004856040516104279190611774565b908152602001604051809103902054815260200190815260200160002060070154111561048b576040518060400160405280600681526020017f416374697661000000000000000000000000000000000000000000000000000081525090506104c4565b6040518060400160405280600881526020017f436164756361646100000000000000000000000000000000000000000000000081525090505b919050565b60006003826040516104db9190611774565b908152602001604051809103902060009054906101000a900460ff16610536576040517f08c379a000000000000000000000000000000000000000000000000000000000815260040161052d906117fd565b60405180910390fd5b6002600060048460405161054a9190611774565b9081526020016040518091039020548152602001908152602001600020600701549050919050565b60008060149054906101000a900460ff16905090565b61059061105f565b73ffffffffffffffffffffffffffffffffffffffff166105ae610bc5565b73ffffffffffffffffffffffffffffffffffffffff1614610604576040517f08c379a00000000000000000000000000000000000000000000000000000000081526004016105fb90611869565b60405180910390fd5b61060e6000611067565b565b60606003826040516106229190611774565b908152602001604051809103902060009054906101000a900460ff1661067d576040517f08c379a0000000000000000000000000000000000000000000000000000000008152600401610674906117fd565b60405180910390fd5b600260006004846040516106919190611774565b908152602001604051809103902054815260200190815260200160002060020180546106bc906118b8565b80601f01602080910402602001604051908101604052809291908181526020018280546106e8906118b8565b80156107355780601f1061070a57610100808354040283529160200191610735565b820191906000526020600020905b81548152906001019060200180831161071857829003601f168201915b50505050509050919050565b60015481565b61074f610572565b1561078f576040517f08c379a000000000000000000000000000000000000000000000000000000000815260040161078690611936565b60405180910390fd5b600082511180156107a1575060008151115b6107e0576040517f08c379a00000000000000000000000000000000000000000000000000000000081526004016107d7906119c8565b60405180910390fd5b6003816040516107f09190611774565b908152602001604051809103902060009054906101000a900460ff161561084c576040517f08c379a000000000000000000000000000000000000000000000000000000000815260040161084390611a5a565b60405180910390fd5b600160038260405161085e9190611774565b908152602001604051809103902060006101000a81548160ff021916908315150217905550600060015490506001600081548092919061089d90611aa9565b919050555060003390506000808314806108b75750600183145b156108d3576303c8fe80426108cc9190611af2565b90506108d7565b4290505b60006303bfc400826108e99190611b26565b9050600073__Utils_________________________________6392d66313846040518263ffffffff1660e01b81526004016109249190611b8b565b602060405180830381865af4158015610941573d6000803e3d6000fd5b505050506040513d601f19601f820116820180604052508101906109659190611be0565b61ffff169050600073__Utils_________________________________63a324ad24856040518263ffffffff1660e01b81526004016109a49190611b8b565b602060405180830381865af41580156109c1573d6000803e3d6000fd5b505050506040513d601f19601f820116820180604052508101906109e59190611c46565b60ff169050600073__Utils_________________________________6365c72840866040518263ffffffff1660e01b8152600401610a239190611b8b565b602060405180830381865af4158015610a40573d6000803e3d6000fd5b505050506040513d601f19601f82011682018060405250810190610a649190611c46565b60ff1690506040518061012001604052808881526020018773ffffffffffffffffffffffffffffffffffffffff1681526020018a8152602001898152602001848152602001838152602001828152602001858152602001868152506002600060015481526020019081526020016000206000820151816000015560208201518160010160006101000a81548173ffffffffffffffffffffffffffffffffffffffff021916908373ffffffffffffffffffffffffffffffffffffffff1602179055506040820151816002019080519060200190610b4192919061112b565b506060820151816003019080519060200190610b5e92919061112b565b506080820151816004015560a0820151816005015560c0820151816006015560e082015181600701556101008201518160080155905050600154600489604051610ba89190611774565b908152602001604051809103902081905550505050505050505050565b60008060009054906101000a900473ffffffffffffffffffffffffffffffffffffffff16905090565b60026020528060005260406000206000915090508060000154908060010160009054906101000a900473ffffffffffffffffffffffffffffffffffffffff1690806002018054610c3d906118b8565b80601f0160208091040260200160405190810160405280929190818152602001828054610c69906118b8565b8015610cb65780601f10610c8b57610100808354040283529160200191610cb6565b820191906000526020600020905b815481529060010190602001808311610c9957829003601f168201915b505050505090806003018054610ccb906118b8565b80601f0160208091040260200160405190810160405280929190818152602001828054610cf7906118b8565b8015610d445780601f10610d1957610100808354040283529160200191610d44565b820191906000526020600020905b815481529060010190602001808311610d2757829003601f168201915b5050505050908060040154908060050154908060060154908060070154908060080154905089565b6000600382604051610d7e9190611774565b908152602001604051809103902060009054906101000a900460ff16610dd9576040517f08c379a0000000000000000000000000000000000000000000000000000000008152600401610dd0906117fd565b60405180910390fd5b60026000600484604051610ded9190611774565b9081526020016040518091039020548152602001908152602001600020600501549050919050565b6000600382604051610e279190611774565b908152602001604051809103902060009054906101000a900460ff16610e82576040517f08c379a0000000000000000000000000000000000000000000000000000000008152600401610e79906117fd565b60405180910390fd5b60026000600484604051610e969190611774565b9081526020016040518091039020548152602001908152602001600020600401549050919050565b610ec661105f565b73ffffffffffffffffffffffffffffffffffffffff16610ee4610bc5565b73ffffffffffffffffffffffffffffffffffffffff1614610f3a576040517f08c379a0000000000000000000000000000000000000000000000000000000008152600401610f3190611869565b60405180910390fd5b600073ffffffffffffffffffffffffffffffffffffffff168173ffffffffffffffffffffffffffffffffffffffff161415610faa576040517f08c379a0000000000000000000000000000000000000000000000000000000008152600401610fa190611ce5565b60405180910390fd5b610fb381611067565b50565b6000600382604051610fc89190611774565b908152602001604051809103902060009054906101000a900460ff16611023576040517f08c379a000000000000000000000000000000000000000000000000000000000815260040161101a906117fd565b60405180910390fd5b600260006004846040516110379190611774565b9081526020016040518091039020548152602001908152602001600020600601549050919050565b600033905090565b60008060009054906101000a900473ffffffffffffffffffffffffffffffffffffffff169050816000806101000a81548173ffffffffffffffffffffffffffffffffffffffff021916908373ffffffffffffffffffffffffffffffffffffffff1602179055508173ffffffffffffffffffffffffffffffffffffffff168173ffffffffffffffffffffffffffffffffffffffff167f8be0079c531659141344cd1fd0a4f28419497f9722a3daafe3b4186f6b6457e060405160405180910390a35050565b828054611137906118b8565b90600052602060002090601f01602090048101928261115957600085556111a0565b82601f1061117257805160ff19168380011785556111a0565b828001600101855582156111a0579182015b8281111561119f578251825591602001919060010190611184565b5b5090506111ad91906111b1565b5090565b5b808211156111ca5760008160009055506001016111b2565b5090565b600082825260208201905092915050565b7f536f6d657468696e672077656e742077726f6e672c207265636f76657220796f60008201527f7572206d6f6e6579000000000000000000000000000000000000000000000000602082015250565b600061123b6028836111ce565b9150611246826111df565b604082019050919050565b6000602082019050818103600083015261126a8161122e565b9050919050565b6000604051905090565b600080fd5b600080fd5b600080fd5b600080fd5b6000601f19601f8301169050919050565b7f4e487b7100000000000000000000000000000000000000000000000000000000600052604160045260246000fd5b6112d88261128f565b810181811067ffffffffffffffff821117156112f7576112f66112a0565b5b80604052505050565b600061130a611271565b905061131682826112cf565b919050565b600067ffffffffffffffff821115611336576113356112a0565b5b61133f8261128f565b9050602081019050919050565b82818337600083830152505050565b600061136e6113698461131b565b611300565b90508281526020810184848401111561138a5761138961128a565b5b61139584828561134c565b509392505050565b600082601f8301126113b2576113b1611285565b5b81356113c284826020860161135b565b91505092915050565b6000602082840312156113e1576113e061127b565b5b600082013567ffffffffffffffff8111156113ff576113fe611280565b5b61140b8482850161139d565b91505092915050565b600081519050919050565b60005b8381101561143d578082015181840152602081019050611422565b8381111561144c576000848401525b50505050565b600061145d82611414565b61146781856111ce565b935061147781856020860161141f565b6114808161128f565b840191505092915050565b600060208201905081810360008301526114a58184611452565b905092915050565b6000819050919050565b6114c0816114ad565b82525050565b60006020820190506114db60008301846114b7565b92915050565b60008115159050919050565b6114f6816114e1565b82525050565b600060208201905061151160008301846114ed565b92915050565b6000806040838503121561152e5761152d61127b565b5b600083013567ffffffffffffffff81111561154c5761154b611280565b5b6115588582860161139d565b925050602083013567ffffffffffffffff81111561157957611578611280565b5b6115858582860161139d565b9150509250929050565b600073ffffffffffffffffffffffffffffffffffffffff82169050919050565b60006115ba8261158f565b9050919050565b6115ca816115af565b82525050565b60006020820190506115e560008301846115c1565b92915050565b6115f4816114ad565b81146115ff57600080fd5b50565b600081359050611611816115eb565b92915050565b60006020828403121561162d5761162c61127b565b5b600061163b84828501611602565b91505092915050565b60006101208201905061165a600083018c6114b7565b611667602083018b6115c1565b8181036040830152611679818a611452565b9050818103606083015261168d8189611452565b905061169c60808301886114b7565b6116a960a08301876114b7565b6116b660c08301866114b7565b6116c360e08301856114b7565b6116d16101008301846114b7565b9a9950505050505050505050565b6116e8816115af565b81146116f357600080fd5b50565b600081359050611705816116df565b92915050565b6000602082840312156117215761172061127b565b5b600061172f848285016116f6565b91505092915050565b600081905092915050565b600061174e82611414565b6117588185611738565b935061176881856020860161141f565b80840191505092915050565b60006117808284611743565b915081905092915050565b7f53657269616c206e756d6e6572206e6f2076616c69642c20706c65617365206960008201527f6e74726f6475636520616e206578697374656e6365206f6e6500000000000000602082015250565b60006117e76039836111ce565b91506117f28261178b565b604082019050919050565b60006020820190508181036000830152611816816117da565b9050919050565b7f4f776e61626c653a2063616c6c6572206973206e6f7420746865206f776e6572600082015250565b60006118536020836111ce565b915061185e8261181d565b602082019050919050565b6000602082019050818103600083015261188281611846565b9050919050565b7f4e487b7100000000000000000000000000000000000000000000000000000000600052602260045260246000fd5b600060028204905060018216806118d057607f821691505b602082108114156118e4576118e3611889565b5b50919050565b7f5061757361626c653a2070617573656400000000000000000000000000000000600082015250565b60006119206010836111ce565b915061192b826118ea565b602082019050919050565b6000602082019050818103600083015261194f81611913565b9050919050565b7f6f75206d75737420696e74726f647563652061204e616d6520616e642061205360008201527f657269616c204e756d6265720000000000000000000000000000000000000000602082015250565b60006119b2602c836111ce565b91506119bd82611956565b604082019050919050565b600060208201905081810360008301526119e1816119a5565b9050919050565b7f53657269616c206e756d62657220616c7265616479206163746976617465642160008201527f2100000000000000000000000000000000000000000000000000000000000000602082015250565b6000611a446021836111ce565b9150611a4f826119e8565b604082019050919050565b60006020820190508181036000830152611a7381611a37565b9050919050565b7f4e487b7100000000000000000000000000000000000000000000000000000000600052601160045260246000fd5b6000611ab4826114ad565b91507fffffffffffffffffffffffffffffffffffffffffffffffffffffffffffffffff821415611ae757611ae6611a7a565b5b600182019050919050565b6000611afd826114ad565b9150611b08836114ad565b925082821015611b1b57611b1a611a7a565b5b828203905092915050565b6000611b31826114ad565b9150611b3c836114ad565b9250827fffffffffffffffffffffffffffffffffffffffffffffffffffffffffffffffff03821115611b7157611b70611a7a565b5b828201905092915050565b611b85816114ad565b82525050565b6000602082019050611ba06000830184611b7c565b92915050565b600061ffff82169050919050565b611bbd81611ba6565b8114611bc857600080fd5b50565b600081519050611bda81611bb4565b92915050565b600060208284031215611bf657611bf561127b565b5b6000611c0484828501611bcb565b91505092915050565b600060ff82169050919050565b611c2381611c0d565b8114611c2e57600080fd5b50565b600081519050611c4081611c1a565b92915050565b600060208284031215611c5c57611c5b61127b565b5b6000611c6a84828501611c31565b91505092915050565b7f4f776e61626c653a206e6577206f776e657220697320746865207a65726f206160008201527f6464726573730000000000000000000000000000000000000000000000000000602082015250565b6000611ccf6026836111ce565b9150611cda82611c73565b604082019050919050565b60006020820190508181036000830152611cfe81611cc2565b905091905056fea2646970667358221220d933a58e8b2d22929cc50239fae38a5213350afd84262da1a1b684de9eda2d6064736f6c634300080a0033",
  "immutableReferences": {},
  "source": "// SPDX-License-Identifier: MIT\npragma solidity >=0.8.0;\n\n// Use of libraries:\n\n// Ownable: to be able to save the address of the one who deploys the contract Open Zeppelin and Library Utils to be able to format the Date\n// Pausable: Emergency stop mechanism of the contract, for a possible damage reduction.\n// Utils: used to be able to format dates.\nimport \"@openzeppelin/contracts/access/Ownable.sol\";\nimport \"@openzeppelin/contracts/security/Pausable.sol\";\nimport \"./Utils.sol\";\n\n// Warranty Contract. Inherits from contract Ownable and Pausable\n/* @title Garantia */\ncontract Garantia is Ownable, Pausable{\n\n    // Data Model\n    struct  Producto {\n        uint id;\n        address comprador;\n        string nombreProducto;\n        string numSerie;\n        uint yearInicio;\n        uint mesInicio;\n        uint diaInicio;\n        uint fechaFin;\n        uint fecha;\n  \n    }\n\n    //Global Variable\n    // Counter of the number of Products that are added to the contract\n    uint public  productosCount;\n    \n    // Mapping, given an uint stored a Producto\n    mapping (uint => Producto) public productos;\n    // Mapping, given a String, stored q booleano\n    mapping (string => bool)  numSeries;\n    //Mapping, given a String stored a uint\n    mapping (string => uint)  numSeriesCheck;\n\n/* @dev To add a product warranty to the contract\n* @param _name, Article Name.\n* @param _numSerie, Serial number of the Article.\n* Modifier, whenNotPaused of the Pausable contract, in case of Pausable, this function cannot be executed.\n*/\n    function addProducto ( string memory _nombre, string memory _numSerie) public whenNotPaused {\n\n        // _ nombre and _numSerie must not be empty and meet a minimum. Improvement, to be able to verify the serial number, and say that it is real.\n\t    require(\n            bytes(_nombre).length > 0 && bytes(_numSerie).length > 0,\n            \"ou must introduce a Name and a Serial Number\"\n\t        );\n\n        //The serial number should not be already in the list\n         require(!numSeries[_numSerie], \"Serial number already activated!!\");\n        //The Warranty is activate\n         numSeries[_numSerie] = true; \n        \n        uint _id = productosCount;\n        productosCount ++;\n        address _comprador = msg.sender;\n\n        uint _fecha;\n    \n        \n        //The Two initialize Warranty Products force them to have a valide date\n        //Just for UI intention\n        if (_id == 0 || _id == 1){\n            _fecha  = block.timestamp - 105 weeks;\n            }\n            else{\n                _fecha  = block.timestamp;//This assigns the current Unix Epoch time (the number of milliseconds since January 1, 1970) to the variable now, based on the clock in the computer executing the script.\n       \n            }\n   \n      uint _fechaFin = _fecha + 104 weeks;//Warranty date ends\n    \n\n      uint _yearInicio = Utils.getYear(_fecha);\n      uint _mesInicio = Utils.getMonth(_fecha);\n      uint _diaInicio = Utils.getDay(_fecha);\n\n      productos[productosCount] = Producto(_id, _comprador, _nombre, _numSerie, _yearInicio, _mesInicio, _diaInicio, _fechaFin, _fecha);\n      numSeriesCheck[_numSerie] = productosCount;\n      \n    }\n\n/* @dev Contract constructor, only is called once, by the person who deploys the contract\n */\n \nconstructor ()  {\n\n    addProducto(\"Dell Computer\", \"ES110004533\");\n    addProducto(\"Play Station 4\", \"FR4332220044\");\n\t//owner = msg.sender;\n}\n\n/* @dev Fallback, in the hypothetical case that the contract is called wrongly, and a payment is made\n * And something went wrong, this function would be called and the payment would be reversed\n */\n\nfallback () external payable {\n   revert(\"Something went wrong, recover your money\") ; \n}   \n\n/* @dev Receive, in the hypothetical case that the contract is called wrongly, and a payment is made\n * And something went wrong, this function would be called and the payment would be reversed\n */\n receive() external payable {\n        // custom function code\n    }\n\n/* @ dev Checks if the Warranty has exceeded two years since its activation.\n* @param _numSerie, Article serial number. Check that numSerie is in the list.\n* @return String, Returns Active or Expired\n*/\n\nfunction checkGarantia(string memory _numSerie) public  view returns ( string memory) {\n    require(numSeries[_numSerie], \"Serial numner no valid, please introduce an existence one\");\n\n    if (productos[numSeriesCheck[_numSerie]].fechaFin > block.timestamp){\n        return \"Activa\";//Activa\n    }else {\n\n        return \"Caducada\";//Caducada\n    }\n  \n}\n\n/* @dev Checks if the Warranty has exceeded two years since its activation.\n* @param _numSerie, Article serial number. Check that numSerie is in the list.\n* @return String, Returns Active or Expired\n*/\nfunction getNombre(string memory _numSerie) public  view returns ( string memory) {\n    require(numSeries[_numSerie], \"Serial numner no valid, please introduce an existence one\");\n \n    return productos[numSeriesCheck[_numSerie]].nombreProducto;\n \n}\n\n/* @dev Get Product Start Year if necessary\n* @param _numSerie, Article serial number. Check that numSerie is in the list.\n* @return Uint, with Start Year\n*/\n\n\nfunction getYearInicio(string memory _numSerie) public  view returns ( uint) {\n    require(numSeries[_numSerie], \"Serial numner no valid, please introduce an existence one\");\n \n    return productos[numSeriesCheck[_numSerie]].yearInicio;\n \n}\n\n/* @dev Get Product Start Month if necessary\n* @param _numSerie, Article serial number. Check that numSerie is in the list.\n* @return Uint, with Start Month Year\n*/\nfunction getMesInicio(string memory _numSerie) public  view returns ( uint) {\n    require(numSeries[_numSerie], \"Serial numner no valid, please introduce an existence one\");\n \n    return productos[numSeriesCheck[_numSerie]].mesInicio;\n \n}\n\n/* @dev Get the Product Start Day if necessary\n* @param _numSerie, Article serial number. Check that numSerie is in the list.\n* @return Uint, with the Start Day\n*/\nfunction getDiaInicio(string memory _numSerie) public  view returns ( uint) {\n    require(numSeries[_numSerie], \"Serial numner no valid, please introduce an existence one\");\n \n    return productos[numSeriesCheck[_numSerie]].diaInicio;\n \n}\n\n\n/* @dev Get End date  of the Product if necessary\n* @param _numSerie, Article serial number. Check that numSerie is in the list.\n* @return Uint, with End date on Start date + 104 weeks\n*/\n\n\nfunction getFechaFin(string memory _numSerie) public  view returns ( uint) {\n    require(numSeries[_numSerie], \"Serial numner no valid, please introduce an existence one\");\n \n    return productos[numSeriesCheck[_numSerie]].fechaFin;\n \n}\n\n}",
  "sourcePath": "/home/jules/Escritorio/Github/blockchain-developer-bootcamp-final-project/contracts/Garantia.sol",
  "compiler": {
    "name": "solc",
    "version": "0.8.10+commit.fc410830.Emscripten.clang"
  },
  "schemaVersion": "3.4.3",
  "updatedAt": "2021-11-29T15:46:09.533Z",
  "devdoc": {
    "kind": "dev",
    "methods": {
      "owner()": {
        "details": "Returns the address of the current owner."
      },
      "paused()": {
        "details": "Returns true if the contract is paused, and false otherwise."
      },
      "renounceOwnership()": {
        "details": "Leaves the contract without owner. It will not be possible to call `onlyOwner` functions anymore. Can only be called by the current owner. NOTE: Renouncing ownership will leave the contract without an owner, thereby removing any functionality that is only available to the owner."
      },
      "transferOwnership(address)": {
        "details": "Transfers ownership of the contract to a new account (`newOwner`). Can only be called by the current owner."
      }
    },
    "version": 1
  },
  "userdoc": {
    "kind": "user",
    "methods": {},
    "version": 1
  }
}