{
  "contractName": "Garantia",
  "abi": [
    {
      "inputs": [],
      "stateMutability": "nonpayable",
      "type": "constructor"
    },
    {
      "anonymous": false,
      "inputs": [
        {
          "indexed": true,
          "internalType": "address",
          "name": "previousOwner",
          "type": "address"
        },
        {
          "indexed": true,
          "internalType": "address",
          "name": "newOwner",
          "type": "address"
        }
      ],
      "name": "OwnershipTransferred",
      "type": "event"
    },
    {
      "anonymous": false,
      "inputs": [
        {
          "indexed": false,
          "internalType": "address",
          "name": "account",
          "type": "address"
        }
      ],
      "name": "Paused",
      "type": "event"
    },
    {
      "anonymous": false,
      "inputs": [
        {
          "indexed": false,
          "internalType": "address",
          "name": "account",
          "type": "address"
        }
      ],
      "name": "Unpaused",
      "type": "event"
    },
    {
      "stateMutability": "payable",
      "type": "fallback",
      "payable": true
    },
    {
      "inputs": [],
      "name": "owner",
      "outputs": [
        {
          "internalType": "address",
          "name": "",
          "type": "address"
        }
      ],
      "stateMutability": "view",
      "type": "function",
      "constant": true
    },
    {
      "inputs": [],
      "name": "paused",
      "outputs": [
        {
          "internalType": "bool",
          "name": "",
          "type": "bool"
        }
      ],
      "stateMutability": "view",
      "type": "function",
      "constant": true
    },
    {
      "inputs": [
        {
          "internalType": "uint256",
          "name": "",
          "type": "uint256"
        }
      ],
      "name": "productos",
      "outputs": [
        {
          "internalType": "uint256",
          "name": "id",
          "type": "uint256"
        },
        {
          "internalType": "address",
          "name": "comprador",
          "type": "address"
        },
        {
          "internalType": "string",
          "name": "nombreProducto",
          "type": "string"
        },
        {
          "internalType": "string",
          "name": "numSerie",
          "type": "string"
        },
        {
          "internalType": "uint256",
          "name": "yearInicio",
          "type": "uint256"
        },
        {
          "internalType": "uint256",
          "name": "mesInicio",
          "type": "uint256"
        },
        {
          "internalType": "uint256",
          "name": "diaInicio",
          "type": "uint256"
        },
        {
          "internalType": "uint256",
          "name": "fechaFin",
          "type": "uint256"
        },
        {
          "internalType": "uint256",
          "name": "fecha",
          "type": "uint256"
        }
      ],
      "stateMutability": "view",
      "type": "function",
      "constant": true
    },
    {
      "inputs": [],
      "name": "productosCount",
      "outputs": [
        {
          "internalType": "uint256",
          "name": "",
          "type": "uint256"
        }
      ],
      "stateMutability": "view",
      "type": "function",
      "constant": true
    },
    {
      "inputs": [],
      "name": "renounceOwnership",
      "outputs": [],
      "stateMutability": "nonpayable",
      "type": "function"
    },
    {
      "inputs": [
        {
          "internalType": "address",
          "name": "newOwner",
          "type": "address"
        }
      ],
      "name": "transferOwnership",
      "outputs": [],
      "stateMutability": "nonpayable",
      "type": "function"
    },
    {
      "stateMutability": "payable",
      "type": "receive",
      "payable": true
    },
    {
      "inputs": [
        {
          "internalType": "string",
          "name": "_nombre",
          "type": "string"
        },
        {
          "internalType": "string",
          "name": "_numSerie",
          "type": "string"
        }
      ],
      "name": "addProducto",
      "outputs": [],
      "stateMutability": "nonpayable",
      "type": "function"
    },
    {
      "inputs": [
        {
          "internalType": "string",
          "name": "_numSerie",
          "type": "string"
        }
      ],
      "name": "checkGarantia",
      "outputs": [
        {
          "internalType": "string",
          "name": "",
          "type": "string"
        }
      ],
      "stateMutability": "view",
      "type": "function",
      "constant": true
    },
    {
      "inputs": [
        {
          "internalType": "string",
          "name": "_numSerie",
          "type": "string"
        }
      ],
      "name": "getNombre",
      "outputs": [
        {
          "internalType": "string",
          "name": "",
          "type": "string"
        }
      ],
      "stateMutability": "view",
      "type": "function",
      "constant": true
    },
    {
      "inputs": [
        {
          "internalType": "string",
          "name": "_numSerie",
          "type": "string"
        }
      ],
      "name": "getYearInicio",
      "outputs": [
        {
          "internalType": "uint256",
          "name": "",
          "type": "uint256"
        }
      ],
      "stateMutability": "view",
      "type": "function",
      "constant": true
    },
    {
      "inputs": [
        {
          "internalType": "string",
          "name": "_numSerie",
          "type": "string"
        }
      ],
      "name": "getMesInicio",
      "outputs": [
        {
          "internalType": "uint256",
          "name": "",
          "type": "uint256"
        }
      ],
      "stateMutability": "view",
      "type": "function",
      "constant": true
    },
    {
      "inputs": [
        {
          "internalType": "string",
          "name": "_numSerie",
          "type": "string"
        }
      ],
      "name": "getDiaInicio",
      "outputs": [
        {
          "internalType": "uint256",
          "name": "",
          "type": "uint256"
        }
      ],
      "stateMutability": "view",
      "type": "function",
      "constant": true
    },
    {
      "inputs": [
        {
          "internalType": "string",
          "name": "_numSerie",
          "type": "string"
        }
      ],
      "name": "getFechaFin",
      "outputs": [
        {
          "internalType": "uint256",
          "name": "",
          "type": "uint256"
        }
      ],
      "stateMutability": "view",
      "type": "function",
      "constant": true
    },
    {
      "inputs": [],
      "name": "pause",
      "outputs": [],
      "stateMutability": "nonpayable",
      "type": "function"
    },
    {
      "inputs": [],
      "name": "unpause",
      "outputs": [],
      "stateMutability": "nonpayable",
      "type": "function"
    }
  ],
  "bytecode": "0x60806040523480156200001157600080fd5b5062000032620000266200014a60201b60201c565b6200015260201b60201c565b60008060146101000a81548160ff021916908315150217905550620000c86040518060400160405280600d81526020017f44656c6c20436f6d7075746572000000000000000000000000000000000000008152506040518060400160405280600b81526020017f45533131303030343533330000000000000000000000000000000000000000008152506200021660201b60201c565b620001446040518060400160405280600e81526020017f506c61792053746174696f6e20340000000000000000000000000000000000008152506040518060400160405280600c81526020017f46523433333232323030343400000000000000000000000000000000000000008152506200021660201b60201c565b62000c75565b600033905090565b60008060009054906101000a900473ffffffffffffffffffffffffffffffffffffffff169050816000806101000a81548173ffffffffffffffffffffffffffffffffffffffff021916908373ffffffffffffffffffffffffffffffffffffffff1602179055508173ffffffffffffffffffffffffffffffffffffffff168173ffffffffffffffffffffffffffffffffffffffff167f8be0079c531659141344cd1fd0a4f28419497f9722a3daafe3b4186f6b6457e060405160405180910390a35050565b62000226620006c860201b60201c565b1562000269576040517f08c379a00000000000000000000000000000000000000000000000000000000081526004016200026090620007ef565b60405180910390fd5b600082511180156200027c575060008151115b620002be576040517f08c379a0000000000000000000000000000000000000000000000000000000008152600401620002b59062000887565b60405180910390fd5b600381604051620002d091906200092c565b908152602001604051809103902060009054906101000a900460ff16156200032f576040517f08c379a00000000000000000000000000000000000000000000000000000000081526004016200032690620009bb565b60405180910390fd5b60016003826040516200034391906200092c565b908152602001604051809103902060006101000a81548160ff0219169083151502179055506000600154905060016000815480929190620003849062000a16565b919050555060003390506000808314806200039f5750600183145b15620003bf576303c8fe8042620003b7919062000a64565b9050620003c3565b4290505b60006303bfc40082620003d7919062000a9f565b9050600073__Utils_________________________________6392d66313846040518263ffffffff1660e01b815260040162000414919062000b0d565b602060405180830381865af415801562000432573d6000803e3d6000fd5b505050506040513d601f19601f8201168201806040525081019062000458919062000b6e565b61ffff169050600073__Utils_________________________________63a324ad24856040518263ffffffff1660e01b815260040162000499919062000b0d565b602060405180830381865af4158015620004b7573d6000803e3d6000fd5b505050506040513d601f19601f82011682018060405250810190620004dd919062000bde565b60ff169050600073__Utils_________________________________6365c72840866040518263ffffffff1660e01b81526004016200051d919062000b0d565b602060405180830381865af41580156200053b573d6000803e3d6000fd5b505050506040513d601f19601f8201168201806040525081019062000561919062000bde565b60ff1690506040518061012001604052808881526020018773ffffffffffffffffffffffffffffffffffffffff1681526020018a8152602001898152602001848152602001838152602001828152602001858152602001868152506002600060015481526020019081526020016000206000820151816000015560208201518160010160006101000a81548173ffffffffffffffffffffffffffffffffffffffff021916908373ffffffffffffffffffffffffffffffffffffffff160217905550604082015181600201908051906020019062000640929190620006de565b5060608201518160030190805190602001906200065f929190620006de565b506080820151816004015560a0820151816005015560c0820151816006015560e082015181600701556101008201518160080155905050600154600489604051620006ab91906200092c565b908152602001604051809103902081905550505050505050505050565b60008060149054906101000a900460ff16905090565b828054620006ec9062000c3f565b90600052602060002090601f0160209004810192826200071057600085556200075c565b82601f106200072b57805160ff19168380011785556200075c565b828001600101855582156200075c579182015b828111156200075b5782518255916020019190600101906200073e565b5b5090506200076b91906200076f565b5090565b5b808211156200078a57600081600090555060010162000770565b5090565b600082825260208201905092915050565b7f5061757361626c653a2070617573656400000000000000000000000000000000600082015250565b6000620007d76010836200078e565b9150620007e4826200079f565b602082019050919050565b600060208201905081810360008301526200080a81620007c8565b9050919050565b7f596f75206d75737420696e74726f647563652061204e616d6520616e6420612060008201527f53657269616c204e756d62657200000000000000000000000000000000000000602082015250565b60006200086f602d836200078e565b91506200087c8262000811565b604082019050919050565b60006020820190508181036000830152620008a28162000860565b9050919050565b600081519050919050565b600081905092915050565b60005b83811015620008df578082015181840152602081019050620008c2565b83811115620008ef576000848401525b50505050565b60006200090282620008a9565b6200090e8185620008b4565b935062000920818560208601620008bf565b80840191505092915050565b60006200093a8284620008f5565b915081905092915050565b7f53657269616c206e756d62657220616c7265616479206163746976617465642160008201527f2100000000000000000000000000000000000000000000000000000000000000602082015250565b6000620009a36021836200078e565b9150620009b08262000945565b604082019050919050565b60006020820190508181036000830152620009d68162000994565b9050919050565b7f4e487b7100000000000000000000000000000000000000000000000000000000600052601160045260246000fd5b6000819050919050565b600062000a238262000a0c565b91507fffffffffffffffffffffffffffffffffffffffffffffffffffffffffffffffff82141562000a595762000a58620009dd565b5b600182019050919050565b600062000a718262000a0c565b915062000a7e8362000a0c565b92508282101562000a945762000a93620009dd565b5b828203905092915050565b600062000aac8262000a0c565b915062000ab98362000a0c565b9250827fffffffffffffffffffffffffffffffffffffffffffffffffffffffffffffffff0382111562000af15762000af0620009dd565b5b828201905092915050565b62000b078162000a0c565b82525050565b600060208201905062000b24600083018462000afc565b92915050565b600080fd5b600061ffff82169050919050565b62000b488162000b2f565b811462000b5457600080fd5b50565b60008151905062000b688162000b3d565b92915050565b60006020828403121562000b875762000b8662000b2a565b5b600062000b978482850162000b57565b91505092915050565b600060ff82169050919050565b62000bb88162000ba0565b811462000bc457600080fd5b50565b60008151905062000bd88162000bad565b92915050565b60006020828403121562000bf75762000bf662000b2a565b5b600062000c078482850162000bc7565b91505092915050565b7f4e487b7100000000000000000000000000000000000000000000000000000000600052602260045260246000fd5b6000600282049050600182168062000c5857607f821691505b6020821081141562000c6f5762000c6e62000c10565b5b50919050565b61204b8062000c856000396000f3fe6080604052600436106100ec5760003560e01c8063878e181d1161008a578063bac7e0f111610059578063bac7e0f114610319578063bc62a0a114610356578063f2fde38b14610393578063fc3c41b9146103bc576100f3565b8063878e181d1461025557806388e93cc8146102805780638da5cb5b146102a957806399553636146102d4576100f3565b80635c975abb116100c65780635c975abb146101bf578063715018a6146101ea57806381b881de146102015780638456cb591461023e576100f3565b8063229d51411461012e5780633f4ba83a1461016b5780634930a74b14610182576100f3565b366100f357005b6040517f08c379a0000000000000000000000000000000000000000000000000000000008152600401610125906114f5565b60405180910390fd5b34801561013a57600080fd5b506101556004803603810190610150919061166f565b6103f9565b604051610162919061172f565b60405180910390f35b34801561017757600080fd5b5061018061051d565b005b34801561018e57600080fd5b506101a960048036038101906101a4919061166f565b6105a3565b6040516101b6919061176a565b60405180910390f35b3480156101cb57600080fd5b506101d461064c565b6040516101e191906117a0565b60405180910390f35b3480156101f657600080fd5b506101ff610662565b005b34801561020d57600080fd5b506102286004803603810190610223919061166f565b6106ea565b604051610235919061172f565b60405180910390f35b34801561024a57600080fd5b5061025361081b565b005b34801561026157600080fd5b5061026a6108a1565b604051610277919061176a565b60405180910390f35b34801561028c57600080fd5b506102a760048036038101906102a291906117bb565b6108a7565b005b3480156102b557600080fd5b506102be610d25565b6040516102cb9190611874565b60405180910390f35b3480156102e057600080fd5b506102fb60048036038101906102f691906118bb565b610d4e565b604051610310999897969594939291906118e8565b60405180910390f35b34801561032557600080fd5b50610340600480360381019061033b919061166f565b610ecc565b60405161034d919061176a565b60405180910390f35b34801561036257600080fd5b5061037d6004803603810190610378919061166f565b610f75565b60405161038a919061176a565b60405180910390f35b34801561039f57600080fd5b506103ba60048036038101906103b591906119af565b61101e565b005b3480156103c857600080fd5b506103e360048036038101906103de919061166f565b611116565b6040516103f0919061176a565b60405180910390f35b606060038260405161040b9190611a18565b908152602001604051809103902060009054906101000a900460ff16610466576040517f08c379a000000000000000000000000000000000000000000000000000000000815260040161045d90611aa1565b60405180910390fd5b426002600060048560405161047b9190611a18565b90815260200160405180910390205481526020019081526020016000206007015411156104df576040518060400160405280600681526020017f41637469766500000000000000000000000000000000000000000000000000008152509050610518565b6040518060400160405280600781526020017f457870697265640000000000000000000000000000000000000000000000000081525090505b919050565b6105256111bf565b73ffffffffffffffffffffffffffffffffffffffff16610543610d25565b73ffffffffffffffffffffffffffffffffffffffff1614610599576040517f08c379a000000000000000000000000000000000000000000000000000000000815260040161059090611b0d565b60405180910390fd5b6105a16111c7565b565b60006003826040516105b59190611a18565b908152602001604051809103902060009054906101000a900460ff16610610576040517f08c379a000000000000000000000000000000000000000000000000000000000815260040161060790611aa1565b60405180910390fd5b600260006004846040516106249190611a18565b9081526020016040518091039020548152602001908152602001600020600701549050919050565b60008060149054906101000a900460ff16905090565b61066a6111bf565b73ffffffffffffffffffffffffffffffffffffffff16610688610d25565b73ffffffffffffffffffffffffffffffffffffffff16146106de576040517f08c379a00000000000000000000000000000000000000000000000000000000081526004016106d590611b0d565b60405180910390fd5b6106e86000611268565b565b60606003826040516106fc9190611a18565b908152602001604051809103902060009054906101000a900460ff16610757576040517f08c379a000000000000000000000000000000000000000000000000000000000815260040161074e90611aa1565b60405180910390fd5b6002600060048460405161076b9190611a18565b9081526020016040518091039020548152602001908152602001600020600201805461079690611b5c565b80601f01602080910402602001604051908101604052809291908181526020018280546107c290611b5c565b801561080f5780601f106107e45761010080835404028352916020019161080f565b820191906000526020600020905b8154815290600101906020018083116107f257829003601f168201915b50505050509050919050565b6108236111bf565b73ffffffffffffffffffffffffffffffffffffffff16610841610d25565b73ffffffffffffffffffffffffffffffffffffffff1614610897576040517f08c379a000000000000000000000000000000000000000000000000000000000815260040161088e90611b0d565b60405180910390fd5b61089f61132c565b565b60015481565b6108af61064c565b156108ef576040517f08c379a00000000000000000000000000000000000000000000000000000000081526004016108e690611bda565b60405180910390fd5b60008251118015610901575060008151115b610940576040517f08c379a000000000000000000000000000000000000000000000000000000000815260040161093790611c6c565b60405180910390fd5b6003816040516109509190611a18565b908152602001604051809103902060009054906101000a900460ff16156109ac576040517f08c379a00000000000000000000000000000000000000000000000000000000081526004016109a390611cfe565b60405180910390fd5b60016003826040516109be9190611a18565b908152602001604051809103902060006101000a81548160ff02191690831515021790555060006001549050600160008154809291906109fd90611d4d565b91905055506000339050600080831480610a175750600183145b15610a33576303c8fe8042610a2c9190611d96565b9050610a37565b4290505b60006303bfc40082610a499190611dca565b9050600073__Utils_________________________________6392d66313846040518263ffffffff1660e01b8152600401610a849190611e2f565b602060405180830381865af4158015610aa1573d6000803e3d6000fd5b505050506040513d601f19601f82011682018060405250810190610ac59190611e84565b61ffff169050600073__Utils_________________________________63a324ad24856040518263ffffffff1660e01b8152600401610b049190611e2f565b602060405180830381865af4158015610b21573d6000803e3d6000fd5b505050506040513d601f19601f82011682018060405250810190610b459190611eea565b60ff169050600073__Utils_________________________________6365c72840866040518263ffffffff1660e01b8152600401610b839190611e2f565b602060405180830381865af4158015610ba0573d6000803e3d6000fd5b505050506040513d601f19601f82011682018060405250810190610bc49190611eea565b60ff1690506040518061012001604052808881526020018773ffffffffffffffffffffffffffffffffffffffff1681526020018a8152602001898152602001848152602001838152602001828152602001858152602001868152506002600060015481526020019081526020016000206000820151816000015560208201518160010160006101000a81548173ffffffffffffffffffffffffffffffffffffffff021916908373ffffffffffffffffffffffffffffffffffffffff1602179055506040820151816002019080519060200190610ca19291906113cf565b506060820151816003019080519060200190610cbe9291906113cf565b506080820151816004015560a0820151816005015560c0820151816006015560e082015181600701556101008201518160080155905050600154600489604051610d089190611a18565b908152602001604051809103902081905550505050505050505050565b60008060009054906101000a900473ffffffffffffffffffffffffffffffffffffffff16905090565b60026020528060005260406000206000915090508060000154908060010160009054906101000a900473ffffffffffffffffffffffffffffffffffffffff1690806002018054610d9d90611b5c565b80601f0160208091040260200160405190810160405280929190818152602001828054610dc990611b5c565b8015610e165780601f10610deb57610100808354040283529160200191610e16565b820191906000526020600020905b815481529060010190602001808311610df957829003601f168201915b505050505090806003018054610e2b90611b5c565b80601f0160208091040260200160405190810160405280929190818152602001828054610e5790611b5c565b8015610ea45780601f10610e7957610100808354040283529160200191610ea4565b820191906000526020600020905b815481529060010190602001808311610e8757829003601f168201915b5050505050908060040154908060050154908060060154908060070154908060080154905089565b6000600382604051610ede9190611a18565b908152602001604051809103902060009054906101000a900460ff16610f39576040517f08c379a0000000000000000000000000000000000000000000000000000000008152600401610f3090611aa1565b60405180910390fd5b60026000600484604051610f4d9190611a18565b9081526020016040518091039020548152602001908152602001600020600501549050919050565b6000600382604051610f879190611a18565b908152602001604051809103902060009054906101000a900460ff16610fe2576040517f08c379a0000000000000000000000000000000000000000000000000000000008152600401610fd990611aa1565b60405180910390fd5b60026000600484604051610ff69190611a18565b9081526020016040518091039020548152602001908152602001600020600401549050919050565b6110266111bf565b73ffffffffffffffffffffffffffffffffffffffff16611044610d25565b73ffffffffffffffffffffffffffffffffffffffff161461109a576040517f08c379a000000000000000000000000000000000000000000000000000000000815260040161109190611b0d565b60405180910390fd5b600073ffffffffffffffffffffffffffffffffffffffff168173ffffffffffffffffffffffffffffffffffffffff16141561110a576040517f08c379a000000000000000000000000000000000000000000000000000000000815260040161110190611f89565b60405180910390fd5b61111381611268565b50565b60006003826040516111289190611a18565b908152602001604051809103902060009054906101000a900460ff16611183576040517f08c379a000000000000000000000000000000000000000000000000000000000815260040161117a90611aa1565b60405180910390fd5b600260006004846040516111979190611a18565b9081526020016040518091039020548152602001908152602001600020600601549050919050565b600033905090565b6111cf61064c565b61120e576040517f08c379a000000000000000000000000000000000000000000000000000000000815260040161120590611ff5565b60405180910390fd5b60008060146101000a81548160ff0219169083151502179055507f5db9ee0a495bf2e6ff9c91a7834c1ba4fdd244a5e8aa4e537bd38aeae4b073aa6112516111bf565b60405161125e9190611874565b60405180910390a1565b60008060009054906101000a900473ffffffffffffffffffffffffffffffffffffffff169050816000806101000a81548173ffffffffffffffffffffffffffffffffffffffff021916908373ffffffffffffffffffffffffffffffffffffffff1602179055508173ffffffffffffffffffffffffffffffffffffffff168173ffffffffffffffffffffffffffffffffffffffff167f8be0079c531659141344cd1fd0a4f28419497f9722a3daafe3b4186f6b6457e060405160405180910390a35050565b61133461064c565b15611374576040517f08c379a000000000000000000000000000000000000000000000000000000000815260040161136b90611bda565b60405180910390fd5b6001600060146101000a81548160ff0219169083151502179055507f62e78cea01bee320cd4e420270b5ea74000d11b0c9f74754ebdbfc544b05a2586113b86111bf565b6040516113c59190611874565b60405180910390a1565b8280546113db90611b5c565b90600052602060002090601f0160209004810192826113fd5760008555611444565b82601f1061141657805160ff1916838001178555611444565b82800160010185558215611444579182015b82811115611443578251825591602001919060010190611428565b5b5090506114519190611455565b5090565b5b8082111561146e576000816000905550600101611456565b5090565b600082825260208201905092915050565b7f536f6d657468696e672077656e742077726f6e672c207265636f76657220796f60008201527f7572206d6f6e6579000000000000000000000000000000000000000000000000602082015250565b60006114df602883611472565b91506114ea82611483565b604082019050919050565b6000602082019050818103600083015261150e816114d2565b9050919050565b6000604051905090565b600080fd5b600080fd5b600080fd5b600080fd5b6000601f19601f8301169050919050565b7f4e487b7100000000000000000000000000000000000000000000000000000000600052604160045260246000fd5b61157c82611533565b810181811067ffffffffffffffff8211171561159b5761159a611544565b5b80604052505050565b60006115ae611515565b90506115ba8282611573565b919050565b600067ffffffffffffffff8211156115da576115d9611544565b5b6115e382611533565b9050602081019050919050565b82818337600083830152505050565b600061161261160d846115bf565b6115a4565b90508281526020810184848401111561162e5761162d61152e565b5b6116398482856115f0565b509392505050565b600082601f83011261165657611655611529565b5b81356116668482602086016115ff565b91505092915050565b6000602082840312156116855761168461151f565b5b600082013567ffffffffffffffff8111156116a3576116a2611524565b5b6116af84828501611641565b91505092915050565b600081519050919050565b60005b838110156116e15780820151818401526020810190506116c6565b838111156116f0576000848401525b50505050565b6000611701826116b8565b61170b8185611472565b935061171b8185602086016116c3565b61172481611533565b840191505092915050565b6000602082019050818103600083015261174981846116f6565b905092915050565b6000819050919050565b61176481611751565b82525050565b600060208201905061177f600083018461175b565b92915050565b60008115159050919050565b61179a81611785565b82525050565b60006020820190506117b56000830184611791565b92915050565b600080604083850312156117d2576117d161151f565b5b600083013567ffffffffffffffff8111156117f0576117ef611524565b5b6117fc85828601611641565b925050602083013567ffffffffffffffff81111561181d5761181c611524565b5b61182985828601611641565b9150509250929050565b600073ffffffffffffffffffffffffffffffffffffffff82169050919050565b600061185e82611833565b9050919050565b61186e81611853565b82525050565b60006020820190506118896000830184611865565b92915050565b61189881611751565b81146118a357600080fd5b50565b6000813590506118b58161188f565b92915050565b6000602082840312156118d1576118d061151f565b5b60006118df848285016118a6565b91505092915050565b6000610120820190506118fe600083018c61175b565b61190b602083018b611865565b818103604083015261191d818a6116f6565b9050818103606083015261193181896116f6565b9050611940608083018861175b565b61194d60a083018761175b565b61195a60c083018661175b565b61196760e083018561175b565b61197561010083018461175b565b9a9950505050505050505050565b61198c81611853565b811461199757600080fd5b50565b6000813590506119a981611983565b92915050565b6000602082840312156119c5576119c461151f565b5b60006119d38482850161199a565b91505092915050565b600081905092915050565b60006119f2826116b8565b6119fc81856119dc565b9350611a0c8185602086016116c3565b80840191505092915050565b6000611a2482846119e7565b915081905092915050565b7f53657269616c206e756d6e6572206e6f2076616c69642c20706c65617365206960008201527f6e74726f6475636520616e206578697374656e6365206f6e6500000000000000602082015250565b6000611a8b603983611472565b9150611a9682611a2f565b604082019050919050565b60006020820190508181036000830152611aba81611a7e565b9050919050565b7f4f776e61626c653a2063616c6c6572206973206e6f7420746865206f776e6572600082015250565b6000611af7602083611472565b9150611b0282611ac1565b602082019050919050565b60006020820190508181036000830152611b2681611aea565b9050919050565b7f4e487b7100000000000000000000000000000000000000000000000000000000600052602260045260246000fd5b60006002820490506001821680611b7457607f821691505b60208210811415611b8857611b87611b2d565b5b50919050565b7f5061757361626c653a2070617573656400000000000000000000000000000000600082015250565b6000611bc4601083611472565b9150611bcf82611b8e565b602082019050919050565b60006020820190508181036000830152611bf381611bb7565b9050919050565b7f596f75206d75737420696e74726f647563652061204e616d6520616e6420612060008201527f53657269616c204e756d62657200000000000000000000000000000000000000602082015250565b6000611c56602d83611472565b9150611c6182611bfa565b604082019050919050565b60006020820190508181036000830152611c8581611c49565b9050919050565b7f53657269616c206e756d62657220616c7265616479206163746976617465642160008201527f2100000000000000000000000000000000000000000000000000000000000000602082015250565b6000611ce8602183611472565b9150611cf382611c8c565b604082019050919050565b60006020820190508181036000830152611d1781611cdb565b9050919050565b7f4e487b7100000000000000000000000000000000000000000000000000000000600052601160045260246000fd5b6000611d5882611751565b91507fffffffffffffffffffffffffffffffffffffffffffffffffffffffffffffffff821415611d8b57611d8a611d1e565b5b600182019050919050565b6000611da182611751565b9150611dac83611751565b925082821015611dbf57611dbe611d1e565b5b828203905092915050565b6000611dd582611751565b9150611de083611751565b9250827fffffffffffffffffffffffffffffffffffffffffffffffffffffffffffffffff03821115611e1557611e14611d1e565b5b828201905092915050565b611e2981611751565b82525050565b6000602082019050611e446000830184611e20565b92915050565b600061ffff82169050919050565b611e6181611e4a565b8114611e6c57600080fd5b50565b600081519050611e7e81611e58565b92915050565b600060208284031215611e9a57611e9961151f565b5b6000611ea884828501611e6f565b91505092915050565b600060ff82169050919050565b611ec781611eb1565b8114611ed257600080fd5b50565b600081519050611ee481611ebe565b92915050565b600060208284031215611f0057611eff61151f565b5b6000611f0e84828501611ed5565b91505092915050565b7f4f776e61626c653a206e6577206f776e657220697320746865207a65726f206160008201527f6464726573730000000000000000000000000000000000000000000000000000602082015250565b6000611f73602683611472565b9150611f7e82611f17565b604082019050919050565b60006020820190508181036000830152611fa281611f66565b9050919050565b7f5061757361626c653a206e6f7420706175736564000000000000000000000000600082015250565b6000611fdf601483611472565b9150611fea82611fa9565b602082019050919050565b6000602082019050818103600083015261200e81611fd2565b905091905056fea26469706673582212207e7c2f79a99b6948f20aa7122f273e02f73ade1535f77317a2a70d3eb9681cde64736f6c634300080a0033",
  "immutableReferences": {},
  "source": "// SPDX-License-Identifier: MIT\npragma solidity 0.8.10;\n\nimport \"@openzeppelin/contracts/access/Ownable.sol\";\nimport \"@openzeppelin/contracts/security/Pausable.sol\";\nimport \"./Utils.sol\";\n\n/**\n * @title  Warranty Activation for Manufacture Products\n * @author Julio Csar Moya\n * @dev    This contract has been developed for academic purposes\n *         Import Open Zeppelin contracts \n *         Pausable.sol: Emergency stop mechanism of the contract, for a possible damage reduction.\n *         Ownable.sol: To be able to save the address of the one who deploys the contract Open Zeppelin and Library Utils to be able to format the Date\n *         \n *         And Using Utils.sol as External Library for format Dates\n * @notice Activate a Product Warranty based on the Serial Number and the Name\n *         It will give you 2 years of hypothetic Warranty, so will be possible to repair de Product.\n *         Also is possible to check, based on the Serial number, if the Warranty is active or not based on the 2 years.\n *         \n */\ncontract Garantia is Ownable, Pausable{\n\n    /// @dev Data Model for a Productc\n    struct  Producto {\n        uint id;\n        address comprador;\n        string nombreProducto;\n        string numSerie;\n        uint yearInicio;\n        uint mesInicio;\n        uint diaInicio;\n        uint fechaFin;\n        uint fecha;\n  \n    }\n\n    ///@dev Global Variable, Counter of the number of Products that are added to the contract\n    uint public  productosCount;\n    \n    /// @dev Mapping: given an uint stored a Producto\n    mapping (uint => Producto) public productos;\n\n    /// @dev  Mapping: given a String, stored a booleano\n    mapping (string => bool)  numSeries;\n\n    /// @dev Mapping: given a String stored a uint\n    mapping (string => uint)  numSeriesCheck;\n\n/**\n* @dev To add a product warranty to the contract\n* @param _nombre, Article Name.\n* @param _numSerie, Serial number of the Article.\n* Modifier, whenNotPaused of the Pausable contract, in case of Pausable, this function cannot be executed.\n*/\n    function addProducto ( string memory _nombre, string memory _numSerie) public whenNotPaused {\n\n        // _ nombre and _numSerie must not be empty and meet a minimum. Improvement, to be able to verify the serial number, and say that it is real.\n\t    require(\n            bytes(_nombre).length > 0 && bytes(_numSerie).length > 0,\n            \"You must introduce a Name and a Serial Number\"\n\t        );\n\n        //The serial number should not be already in the list\n         require(!numSeries[_numSerie], \"Serial number already activated!!\");\n        //The Warranty is activate\n         numSeries[_numSerie] = true; \n        \n        uint _id = productosCount;\n        productosCount ++;\n        address _comprador = msg.sender;\n\n        uint _fecha;\n    \n        \n        //The Two initialize Warranty Products force them to have a valide date\n        //Just for UI intention\n        if (_id == 0 || _id == 1){\n            _fecha  = block.timestamp - 105 weeks;\n            }\n            else{\n                _fecha  = block.timestamp;//This assigns the current Unix Epoch time (the number of milliseconds since January 1, 1970) to the variable now, based on the clock in the computer executing the script.\n       \n            }\n   \n      uint _fechaFin = _fecha + 104 weeks;//Warranty date ends\n    \n\n      uint _yearInicio = Utils.getYear(_fecha);\n      uint _mesInicio = Utils.getMonth(_fecha);\n      uint _diaInicio = Utils.getDay(_fecha);\n\n      productos[productosCount] = Producto(_id, _comprador, _nombre, _numSerie, _yearInicio, _mesInicio, _diaInicio, _fechaFin, _fecha);\n      numSeriesCheck[_numSerie] = productosCount;\n      \n    }\n\n/** @dev Contract constructor, only  is called once, by the person who deploys the contract\n* Initially are 2 Dummies Products Load\n */\n \nconstructor ()  {\n\n    addProducto(\"Dell Computer\", \"ES110004533\");\n    addProducto(\"Play Station 4\", \"FR4332220044\");\n\t//owner = msg.sender;\n}\n\n/** @dev Fallback, in the hypothetical case that the contract is called wrongly, and a payment is made\n * And something went wrong, this function would be called and the payment would be reversed\n */\n\nfallback () external payable {\n   revert(\"Something went wrong, recover your money\") ; \n}   \n\n/** @dev Receive, in the hypothetical case that the contract is called wrongly, and a payment is made\n * And something went wrong, this function would be called and the payment would be reversed\n */\n receive() external payable {\n        // custom function code\n    }\n\n/** @dev Checks if the Warranty has exceeded two years since its activation.\n* @param _numSerie, Article serial number. Check that numSerie is in the list.\n* @return String, Returns Active or Expired\n*/\n\nfunction checkGarantia(string memory _numSerie) public  view returns ( string memory) {\n    require(numSeries[_numSerie], \"Serial numner no valid, please introduce an existence one\");\n\n    if (productos[numSeriesCheck[_numSerie]].fechaFin > block.timestamp){\n        return \"Active\";//Activa\n    }else {\n\n        return \"Expired\";//Caducada\n    }\n  \n}\n\n/** @dev Checks if the Warranty has exceeded two years since its activation.\n* @param _numSerie, Article serial number. Check that numSerie is in the list.\n* @return String, Returns Active or Expired\n*/\nfunction getNombre(string memory _numSerie) public  view returns ( string memory) {\n    require(numSeries[_numSerie], \"Serial numner no valid, please introduce an existence one\");\n \n    return productos[numSeriesCheck[_numSerie]].nombreProducto;\n \n}\n\n/** @dev Get Product Start Year if necessary\n* @param _numSerie, Article serial number. Check that numSerie is in the list.\n* @return Uint, with Start Year\n*/\nfunction getYearInicio(string memory _numSerie) public  view returns ( uint) {\n    require(numSeries[_numSerie], \"Serial numner no valid, please introduce an existence one\");\n \n    return productos[numSeriesCheck[_numSerie]].yearInicio;\n \n}\n\n/** @dev Get Product Start Month if necessary\n* @param _numSerie, Article serial number. Check that numSerie is in the list.\n* @return Uint, with Start Month Year\n*/\nfunction getMesInicio(string memory _numSerie) public  view returns ( uint) {\n    require(numSeries[_numSerie], \"Serial numner no valid, please introduce an existence one\");\n \n    return productos[numSeriesCheck[_numSerie]].mesInicio;\n \n}\n\n/** @dev Get the Product Start Day if necessary\n* @param _numSerie, Article serial number. Check that numSerie is in the list.\n* @return Uint, with the Start Day\n*/\nfunction getDiaInicio(string memory _numSerie) public  view returns ( uint) {\n    require(numSeries[_numSerie], \"Serial numner no valid, please introduce an existence one\");\n \n    return productos[numSeriesCheck[_numSerie]].diaInicio;\n \n}\n\n\n/** @dev Get End date  of the Product if necessary\n* @param _numSerie, Article serial number. Check that numSerie is in the list.\n* @return Uint, with End date on Start date + 104 weeks\n*/\nfunction getFechaFin(string memory _numSerie) public  view returns ( uint) {\n    require(numSeries[_numSerie], \"Serial numner no valid, please introduce an existence one\");\n \n    return productos[numSeriesCheck[_numSerie]].fechaFin;\n \n}\n\n\n /// @dev Pause the contract //Call _pause fucntion on Pausable.sol contract\n    function pause() public  onlyOwner{\n        _pause(); \n    }\n\n/// @dev Unpause the contract //Call _unpause fucntion on Pausable.sol contract\n    function unpause() public  onlyOwner{\n        _unpause();\n    }\n\n}",
  "sourcePath": "/home/jules/Escritorio/Github/blockchain-developer-bootcamp-final-project/contracts/Garantia.sol",
  "compiler": {
    "name": "solc",
    "version": "0.8.10+commit.fc410830.Emscripten.clang"
  },
  "schemaVersion": "3.4.3",
  "updatedAt": "2021-12-16T16:01:16.674Z",
  "networkType": "ethereum",
  "devdoc": {
    "author": "Julio Csar Moya",
    "details": "This contract has been developed for academic purposes         Import Open Zeppelin contracts          Pausable.sol: Emergency stop mechanism of the contract, for a possible damage reduction.         Ownable.sol: To be able to save the address of the one who deploys the contract Open Zeppelin and Library Utils to be able to format the Date                  And Using Utils.sol as External Library for format Dates",
    "kind": "dev",
    "methods": {
      "addProducto(string,string)": {
        "details": "To add a product warranty to the contract",
        "params": {
          "_nombre": ", Article Name.",
          "_numSerie": ", Serial number of the Article. Modifier, whenNotPaused of the Pausable contract, in case of Pausable, this function cannot be executed."
        }
      },
      "checkGarantia(string)": {
        "details": "Checks if the Warranty has exceeded two years since its activation.",
        "params": {
          "_numSerie": ", Article serial number. Check that numSerie is in the list."
        },
        "returns": {
          "_0": "String, Returns Active or Expired"
        }
      },
      "constructor": {
        "details": "Contract constructor, only  is called once, by the person who deploys the contract Initially are 2 Dummies Products Load"
      },
      "getDiaInicio(string)": {
        "details": "Get the Product Start Day if necessary",
        "params": {
          "_numSerie": ", Article serial number. Check that numSerie is in the list."
        },
        "returns": {
          "_0": "Uint, with the Start Day"
        }
      },
      "getFechaFin(string)": {
        "details": "Get End date  of the Product if necessary",
        "params": {
          "_numSerie": ", Article serial number. Check that numSerie is in the list."
        },
        "returns": {
          "_0": "Uint, with End date on Start date + 104 weeks"
        }
      },
      "getMesInicio(string)": {
        "details": "Get Product Start Month if necessary",
        "params": {
          "_numSerie": ", Article serial number. Check that numSerie is in the list."
        },
        "returns": {
          "_0": "Uint, with Start Month Year"
        }
      },
      "getNombre(string)": {
        "details": "Checks if the Warranty has exceeded two years since its activation.",
        "params": {
          "_numSerie": ", Article serial number. Check that numSerie is in the list."
        },
        "returns": {
          "_0": "String, Returns Active or Expired"
        }
      },
      "getYearInicio(string)": {
        "details": "Get Product Start Year if necessary",
        "params": {
          "_numSerie": ", Article serial number. Check that numSerie is in the list."
        },
        "returns": {
          "_0": "Uint, with Start Year"
        }
      },
      "owner()": {
        "details": "Returns the address of the current owner."
      },
      "pause()": {
        "details": "Pause the contract //Call _pause fucntion on Pausable.sol contract"
      },
      "paused()": {
        "details": "Returns true if the contract is paused, and false otherwise."
      },
      "renounceOwnership()": {
        "details": "Leaves the contract without owner. It will not be possible to call `onlyOwner` functions anymore. Can only be called by the current owner. NOTE: Renouncing ownership will leave the contract without an owner, thereby removing any functionality that is only available to the owner."
      },
      "transferOwnership(address)": {
        "details": "Transfers ownership of the contract to a new account (`newOwner`). Can only be called by the current owner."
      },
      "unpause()": {
        "details": "Unpause the contract //Call _unpause fucntion on Pausable.sol contract"
      }
    },
    "stateVariables": {
      "numSeries": {
        "details": "Mapping: given a String, stored a booleano"
      },
      "numSeriesCheck": {
        "details": "Mapping: given a String stored a uint"
      },
      "productos": {
        "details": "Mapping: given an uint stored a Producto"
      },
      "productosCount": {
        "details": "Global Variable, Counter of the number of Products that are added to the contract"
      }
    },
    "title": "Warranty Activation for Manufacture Products",
    "version": 1
  },
  "userdoc": {
    "kind": "user",
    "methods": {},
    "notice": "Activate a Product Warranty based on the Serial Number and the Name         It will give you 2 years of hypothetic Warranty, so will be possible to repair de Product.         Also is possible to check, based on the Serial number, if the Warranty is active or not based on the 2 years.         ",
    "version": 1
  }
}