{
  "contractName": "Utils",
  "abi": [
    {
      "inputs": [
        {
          "internalType": "uint16",
          "name": "year",
          "type": "uint16"
        }
      ],
      "name": "isLeapYear",
      "outputs": [
        {
          "internalType": "bool",
          "name": "",
          "type": "bool"
        }
      ],
      "stateMutability": "pure",
      "type": "function",
      "constant": true
    },
    {
      "inputs": [
        {
          "internalType": "uint256",
          "name": "year",
          "type": "uint256"
        }
      ],
      "name": "leapYearsBefore",
      "outputs": [
        {
          "internalType": "uint256",
          "name": "",
          "type": "uint256"
        }
      ],
      "stateMutability": "pure",
      "type": "function",
      "constant": true
    },
    {
      "inputs": [
        {
          "internalType": "uint8",
          "name": "month",
          "type": "uint8"
        },
        {
          "internalType": "uint16",
          "name": "year",
          "type": "uint16"
        }
      ],
      "name": "getDaysInMonth",
      "outputs": [
        {
          "internalType": "uint8",
          "name": "",
          "type": "uint8"
        }
      ],
      "stateMutability": "pure",
      "type": "function",
      "constant": true
    },
    {
      "inputs": [
        {
          "internalType": "uint256",
          "name": "timestamp",
          "type": "uint256"
        }
      ],
      "name": "getYear",
      "outputs": [
        {
          "internalType": "uint16",
          "name": "",
          "type": "uint16"
        }
      ],
      "stateMutability": "pure",
      "type": "function",
      "constant": true
    },
    {
      "inputs": [
        {
          "internalType": "uint256",
          "name": "timestamp",
          "type": "uint256"
        }
      ],
      "name": "getMonth",
      "outputs": [
        {
          "internalType": "uint8",
          "name": "",
          "type": "uint8"
        }
      ],
      "stateMutability": "pure",
      "type": "function",
      "constant": true
    },
    {
      "inputs": [
        {
          "internalType": "uint256",
          "name": "timestamp",
          "type": "uint256"
        }
      ],
      "name": "getDay",
      "outputs": [
        {
          "internalType": "uint8",
          "name": "",
          "type": "uint8"
        }
      ],
      "stateMutability": "pure",
      "type": "function",
      "constant": true
    },
    {
      "inputs": [
        {
          "internalType": "uint256",
          "name": "timestamp",
          "type": "uint256"
        }
      ],
      "name": "getHour",
      "outputs": [
        {
          "internalType": "uint8",
          "name": "",
          "type": "uint8"
        }
      ],
      "stateMutability": "pure",
      "type": "function",
      "constant": true
    },
    {
      "inputs": [
        {
          "internalType": "uint256",
          "name": "timestamp",
          "type": "uint256"
        }
      ],
      "name": "getMinute",
      "outputs": [
        {
          "internalType": "uint8",
          "name": "",
          "type": "uint8"
        }
      ],
      "stateMutability": "pure",
      "type": "function",
      "constant": true
    },
    {
      "inputs": [
        {
          "internalType": "uint256",
          "name": "timestamp",
          "type": "uint256"
        }
      ],
      "name": "getSecond",
      "outputs": [
        {
          "internalType": "uint8",
          "name": "",
          "type": "uint8"
        }
      ],
      "stateMutability": "pure",
      "type": "function",
      "constant": true
    },
    {
      "inputs": [
        {
          "internalType": "uint256",
          "name": "timestamp",
          "type": "uint256"
        }
      ],
      "name": "getWeekday",
      "outputs": [
        {
          "internalType": "uint8",
          "name": "",
          "type": "uint8"
        }
      ],
      "stateMutability": "pure",
      "type": "function",
      "constant": true
    }
  ],
  "bytecode": "0x610cbc610053600b82828239805160001a607314610046577f4e487b7100000000000000000000000000000000000000000000000000000000600052600060045260246000fd5b30600052607381538281f3fe73000000000000000000000000000000000000000030146080604052600436106100a85760003560e01c8063a324ad2411610070578063a324ad241461019d578063a6f0e577146101cd578063b1999937146101fd578063b238ad0e1461022d578063fa93f8831461025d576100a8565b80633e239e1a146100ad5780634ac1ad78146100dd57806365c728401461010d5780638aa001fc1461013d57806392d663131461016d575b600080fd5b6100c760048036038101906100c29190610892565b61028d565b6040516100d491906108db565b60405180910390f35b6100f760048036038101906100f29190610892565b6102ba565b60405161010491906108db565b60405180910390f35b61012760048036038101906101229190610892565b6102ea565b60405161013491906108db565b60405180910390f35b61015760048036038101906101529190610892565b610300565b60405161016491906108db565b60405180910390f35b61018760048036038101906101829190610892565b610316565b6040516101949190610913565b60405180910390f35b6101b760048036038101906101b29190610892565b61042d565b6040516101c491906108db565b60405180910390f35b6101e760048036038101906101e2919061095a565b610443565b6040516101f491906109a2565b60405180910390f35b61021760048036038101906102129190610892565b6104b2565b60405161022491906109cc565b60405180910390f35b61024760048036038101906102429190610a13565b610506565b60405161025491906108db565b60405180910390f35b61027760048036038101906102729190610892565b6105d2565b60405161028491906108db565b60405180910390f35b60006018603c808461029f9190610ab1565b6102a99190610ab1565b6102b39190610ae2565b9050919050565b60006007600462015180846102cf9190610ab1565b6102d99190610b13565b6102e39190610ae2565b9050919050565b60006102f5826105f3565b604001519050919050565b6000603c8261030f9190610ae2565b9050919050565b600080600090506000806301e13380856103309190610ab1565b6107b261ffff166103419190610b13565b91506103526107b261ffff166104b2565b61035f8361ffff166104b2565b6103699190610b69565b9050806301e2850061037b9190610b9d565b836103869190610b13565b9250806107b2836103979190610bf7565b61ffff166103a59190610b69565b6301e133806103b49190610b9d565b836103bf9190610b13565b92505b84831115610422576103df6001836103da9190610bf7565b610443565b156103fb576301e28500836103f49190610b69565b925061040e565b6301e133808361040b9190610b69565b92505b60018261041b9190610bf7565b91506103c2565b819350505050919050565b6000610438826105f3565b602001519050919050565b6000806004836104539190610c2b565b61ffff161461046557600090506104ad565b60006064836104749190610c2b565b61ffff161461048657600190506104ad565b6000610190836104969190610c2b565b61ffff16146104a857600090506104ad565b600190505b919050565b60006001826104c19190610b69565b9150610190826104d19190610ab1565b6064836104de9190610ab1565b6004846104eb9190610ab1565b6104f59190610b69565b6104ff9190610b13565b9050919050565b600060018360ff16148061051d575060038360ff16145b8061052b575060058360ff16145b80610539575060078360ff16145b80610547575060088360ff16145b806105555750600a8360ff16145b806105635750600c8360ff16145b1561057157601f90506105cc565b60048360ff161480610586575060068360ff16145b80610594575060098360ff16145b806105a25750600b8360ff16145b156105b057601e90506105cc565b6105b982610443565b156105c757601d90506105cc565b601c90505b92915050565b6000603c80836105e29190610ab1565b6105ec9190610ae2565b9050919050565b6105fb610804565b6000808061060885610316565b846000019061ffff16908161ffff168152505061062a6107b261ffff166104b2565b61063b856000015161ffff166104b2565b6106459190610b69565b9150816301e285006106579190610b9d565b836106629190610b13565b9250816107b285600001516106779190610bf7565b61ffff166106859190610b69565b6301e133806106949190610b9d565b8361069f9190610b13565b92506000600191505b600c8260ff161161071f576106c1828660000151610506565b60ff16620151806106d29190610b9d565b90508584826106e19190610b13565b11156106fe5781856020019060ff16908160ff168152505061071f565b808461070a9190610b13565b9350818061071790610c5c565b9250506106a8565b600191505b61073685602001518660000151610506565b60ff168260ff1611610793578584620151806107529190610b13565b111561076f5781856040019060ff16908160ff1681525050610793565b620151808461077e9190610b13565b9350818061078b90610c5c565b925050610724565b61079c8661028d565b856060019060ff16908160ff16815250506107b6866105d2565b856080019060ff16908160ff16815250506107d086610300565b8560a0019060ff16908160ff16815250506107ea866102ba565b8560c0019060ff16908160ff168152505050505050919050565b6040518060e00160405280600061ffff168152602001600060ff168152602001600060ff168152602001600060ff168152602001600060ff168152602001600060ff168152602001600060ff1681525090565b600080fd5b6000819050919050565b61086f8161085c565b811461087a57600080fd5b50565b60008135905061088c81610866565b92915050565b6000602082840312156108a8576108a7610857565b5b60006108b68482850161087d565b91505092915050565b600060ff82169050919050565b6108d5816108bf565b82525050565b60006020820190506108f060008301846108cc565b92915050565b600061ffff82169050919050565b61090d816108f6565b82525050565b60006020820190506109286000830184610904565b92915050565b610937816108f6565b811461094257600080fd5b50565b6000813590506109548161092e565b92915050565b6000602082840312156109705761096f610857565b5b600061097e84828501610945565b91505092915050565b60008115159050919050565b61099c81610987565b82525050565b60006020820190506109b76000830184610993565b92915050565b6109c68161085c565b82525050565b60006020820190506109e160008301846109bd565b92915050565b6109f0816108bf565b81146109fb57600080fd5b50565b600081359050610a0d816109e7565b92915050565b60008060408385031215610a2a57610a29610857565b5b6000610a38858286016109fe565b9250506020610a4985828601610945565b9150509250929050565b7f4e487b7100000000000000000000000000000000000000000000000000000000600052601260045260246000fd5b7f4e487b7100000000000000000000000000000000000000000000000000000000600052601160045260246000fd5b6000610abc8261085c565b9150610ac78361085c565b925082610ad757610ad6610a53565b5b828204905092915050565b6000610aed8261085c565b9150610af88361085c565b925082610b0857610b07610a53565b5b828206905092915050565b6000610b1e8261085c565b9150610b298361085c565b9250827fffffffffffffffffffffffffffffffffffffffffffffffffffffffffffffffff03821115610b5e57610b5d610a82565b5b828201905092915050565b6000610b748261085c565b9150610b7f8361085c565b925082821015610b9257610b91610a82565b5b828203905092915050565b6000610ba88261085c565b9150610bb38361085c565b9250817fffffffffffffffffffffffffffffffffffffffffffffffffffffffffffffffff0483118215151615610bec57610beb610a82565b5b828202905092915050565b6000610c02826108f6565b9150610c0d836108f6565b925082821015610c2057610c1f610a82565b5b828203905092915050565b6000610c36826108f6565b9150610c41836108f6565b925082610c5157610c50610a53565b5b828206905092915050565b6000610c67826108bf565b915060ff821415610c7b57610c7a610a82565b5b60018201905091905056fea26469706673582212205a6c67fef6fddcaaed0f2d63963c8c03c3c62b0cff6f780e7e1f343fc44eeaf664736f6c634300080a0033",
  "immutableReferences": {},
  "source": "// SPDX-License-Identifier: MIT\npragma solidity 0.8.10;\n\nlibrary Utils {\n  \n\n  /*\n         *  Date and Time utilities for ethereum contracts\n         *\n         */\n        struct _DateTime {\n                uint16 year;\n                uint8 month;\n                uint8 day;\n                uint8 hour;\n                uint8 minute;\n                uint8 second;\n                uint8 weekday;\n        }\n\n        uint constant DAY_IN_SECONDS = 86400;\n        uint constant YEAR_IN_SECONDS = 31536000;\n        uint constant LEAP_YEAR_IN_SECONDS = 31622400;\n\n        uint constant HOUR_IN_SECONDS = 3600;\n        uint constant MINUTE_IN_SECONDS = 60;\n\n        uint16 constant ORIGIN_YEAR = 1970;\n\n        function isLeapYear(uint16 year) public pure returns (bool) {\n                if (year % 4 != 0) {\n                        return false;\n                }\n                if (year % 100 != 0) {\n                        return true;\n                }\n                if (year % 400 != 0) {\n                        return false;\n                }\n                return true;\n        }\n\n        function leapYearsBefore(uint year) public pure returns (uint) {\n                year -= 1;\n                return year / 4 - year / 100 + year / 400;\n        }\n\n        function getDaysInMonth(uint8 month, uint16 year) public pure returns (uint8) {\n                if (month == 1 || month == 3 || month == 5 || month == 7 || month == 8 || month == 10 || month == 12) {\n                        return 31;\n                }\n                else if (month == 4 || month == 6 || month == 9 || month == 11) {\n                        return 30;\n                }\n                else if (isLeapYear(year)) {\n                        return 29;\n                }\n                else {\n                        return 28;\n                }\n        }\n\n        function parseTimestamp(uint timestamp) internal pure returns (  _DateTime memory dt) {\n                uint secondsAccountedFor = 0;\n                uint buf;\n                uint8 i;\n               \n\n                // Year\n                dt.year = getYear(timestamp);\n                buf = leapYearsBefore(dt.year) - leapYearsBefore(ORIGIN_YEAR);\n\n                secondsAccountedFor += LEAP_YEAR_IN_SECONDS * buf;\n                secondsAccountedFor += YEAR_IN_SECONDS * (dt.year - ORIGIN_YEAR - buf);\n\n                // Month\n                uint secondsInMonth;\n                for (i = 1; i <= 12; i++) {\n                        secondsInMonth = DAY_IN_SECONDS * getDaysInMonth(i, dt.year);\n                        if (secondsInMonth + secondsAccountedFor > timestamp) {\n                                dt.month = i;\n                                break;\n                        }\n                        secondsAccountedFor += secondsInMonth;\n                }\n\n                // Day\n                for (i = 1; i <= getDaysInMonth(dt.month, dt.year); i++) {\n                        if (DAY_IN_SECONDS + secondsAccountedFor > timestamp) {\n                                dt.day = i;\n                                break;\n                        }\n                        secondsAccountedFor += DAY_IN_SECONDS;\n                }\n\n                // Hour\n                dt.hour = getHour(timestamp);\n\n                // Minute\n                dt.minute = getMinute(timestamp);\n\n                // Second\n                dt.second = getSecond(timestamp);\n\n                // Day of week.\n                dt.weekday = getWeekday(timestamp);\n\n                \n        }\n\n        function getYear(uint timestamp) public pure returns (uint16) {\n                uint secondsAccountedFor = 0;\n                uint16 year;\n                uint numLeapYears;\n\n                // Year\n                year = uint16(ORIGIN_YEAR + timestamp / YEAR_IN_SECONDS);\n                numLeapYears = leapYearsBefore(year) - leapYearsBefore(ORIGIN_YEAR);\n\n                secondsAccountedFor += LEAP_YEAR_IN_SECONDS * numLeapYears;\n                secondsAccountedFor += YEAR_IN_SECONDS * (year - ORIGIN_YEAR - numLeapYears);\n\n                while (secondsAccountedFor > timestamp) {\n                        if (isLeapYear(uint16(year - 1))) {\n                                secondsAccountedFor -= LEAP_YEAR_IN_SECONDS;\n                        }\n                        else {\n                                secondsAccountedFor -= YEAR_IN_SECONDS;\n                        }\n                        year -= 1;\n                }\n                return year;\n        }\n\n        function getMonth(uint timestamp) public pure returns (uint8) {\n                return parseTimestamp(timestamp).month;\n        }\n\n        function getDay(uint timestamp) public pure returns (uint8) {\n                return parseTimestamp(timestamp).day;\n        }\n\n        function getHour(uint timestamp) public pure returns (uint8) {\n                return uint8((timestamp / 60 / 60) % 24);\n        }\n\n        function getMinute(uint timestamp) public pure returns (uint8) {\n                return uint8((timestamp / 60) % 60);\n        }\n\n        function getSecond(uint timestamp) public pure returns (uint8) {\n                return uint8(timestamp % 60);\n        }\n\n        function getWeekday(uint timestamp) public pure returns (uint8) {\n                return uint8((timestamp / DAY_IN_SECONDS + 4) % 7);\n        }\n\n        \n}",
  "sourcePath": "/home/jules/Escritorio/Github/blockchain-developer-bootcamp-final-project/contracts/Utils.sol",
  "compiler": {
    "name": "solc",
    "version": "0.8.10+commit.fc410830.Emscripten.clang"
  },
  "schemaVersion": "3.4.3",
  "updatedAt": "2021-12-16T16:01:16.657Z",
  "networkType": "ethereum",
  "devdoc": {
    "kind": "dev",
    "methods": {},
    "version": 1
  },
  "userdoc": {
    "kind": "user",
    "methods": {},
    "version": 1
  }
}